:100000000C94A5000C94CD000C94CD000C94CD0064
:100010000C94CD000C94CD000C94CD000C94CD002C
:100020000C94CD000C94CD000C94CD000C94CD001C
:100030000C94CD000C94CD000C94CD000C94CD000C
:100040000C94E70F0C94CD000C9488110C94CD0007
:100050000C94CD000C94CD000C94CD000C94CD00EC
:100060000C94CD000C94CD00084AD73B3BCE016EDA
:1000700084BCBFFDC12F3D6C74319ABD56833DDAFF
:100080003D00C77F11BED9E4BB4C3E916BAAAABE0E
:10009000000000803F05A84CCDB2D44EB93836A937
:1000A000020C50B9918688083CA6AAAA2ABE000074
:1000B00000803F00000000240027002A000000000C
:1000C00000250028002B0000000000230026002946
:1000D00000040404040404040402020202020203F1
:1000E00003030303030102040810204080010204FB
:1000F000081020010204081020000000070002017F
:1001000000000304060000000000000000494E4605
:10011000494E4954594E414ECDCCCC3D0AD7233C93
:1001200017B7D13877CC2B329595E6241FB14F0AFB
:10013000000020410000C84200401C4620BCBE4CCC
:10014000CA1B0E5AAEC59D740D1311241FBECFEFEE
:10015000D4E0DEBFCDBF11E0A0E0B1E0ECE0F2E31F
:1001600002C005900D92AE35B107D9F712E0AEE5A9
:10017000B1E001C01D92A33EB107E1F711E0CAE46E
:10018000D1E004C02297FE010E94BE18C834D107F6
:10019000C9F70E94E00F0C9404190C940000A0E031
:1001A000B0E0E5EDF0E00C94D318EC015B016115D3
:1001B000710519F0FB0191838083F9908F2D90E0F8
:1001C0000E94C218892BC9F7FDE2FF1621F4F990AD
:1001D000EE24E39405C02BE2F21609F4F990EE2424
:1001E0008E0101501040C8016DE071E043E050E025
:1001F0000E942F02892B01F58E010E5F1F4FC8014F
:1002000060E171E045E050E00E942F02892B19F473
:100210008E01095F1F4FA114B10419F0F50111837C
:100220000083E0FC04C070E090E080E814C070E05F
:1002300090E080E86FEF08C1C80165E171E043E03C
:1002400050E00E942F02892B69F4A114B10429F413
:1002500070E090E080EC6FE7F7C02296F501D18363
:10026000C083F6CF8824992440E050E060E070E03D
:10027000EF2DE053EA30A0F5F2E0EF2A8E2D90E06A
:100280009C0128703070E2FE06C0232B79F508949B
:10029000811C911C2BC0232B19F008948108910814
:1002A000DB01CA0112E0880F991FAA1FBB1F1A9514
:1002B000D1F7480F591F6A1F7B1F440F551F661F38
:1002C000771F4E0F511D611D711D483929E95207D5
:1002D00029E9620729E1720748F084E0E82A06C0AC
:1002E000EE3F31F4E3FC39C098E0E92AF990C0CF41
:1002F000E53311F0E53189F529912D3219F4E0E16A
:10030000EE2A05C02B3219F081E090E003C029915C
:1003100082E090E0E22FE053EA3018F0C81BD90BDE
:100320001CC020E030E0FCE020383F075CF4C9014D
:10033000880F991F880F991F280F391F220F331F0D
:100340002E0F311DE991E053EA3068F3E4FE03C05B
:10035000309521953F4F820E931ECE2CDD24E1FE79
:1003600007C0A114B10421F02197F501D183C08306
:10037000CB01BA010E9401167B018C01F3E0CF2270
:10038000DD2423E0C216D10421F417FB109517F9E0
:10039000109557016801C801B70120E030E040E046
:1003A00050E00E946115882309F44AC097FE0DC0F1
:1003B0002CE2E22E21E0F22E909481949108939405
:1003C000C0E2D0E000E010E012C094E4E92E91E039
:1003D000F92EF6CFF7012591359145915491C6013B
:1003E000B5010E9467175B016C018C1A9D0A8C167F
:1003F0009D0684F7D595C7950F5F1F4F06301105F1
:1004000029F08CEF9FEFE80EF91EF1CFC501D60160
:100410007C018D018C2D880F8D2D881F8F3F51F011
:10042000C601B50120E030E040E050E00E946115D7
:10043000882331F482E290E09093E2028093E1021B
:100440007E2D9F2D802F612F272F392F482F562F3C
:10045000B901CA01CDB7DEB7ECE00C94EF18FB018F
:10046000DC014150504088F08D9181341CF08B3577
:100470000CF4805E659161341CF06B350CF4605EA9
:10048000861B611171F3990B0895881BFCCF4EE513
:1004900051E00E944C020895009731F4DA018D91E9
:1004A0009C91009709F40EC0DC01FB013D91219164
:1004B000222319F03217C9F3FACF332331F4DA01CA
:1004C0001D921C928827992708951197AF93BF9387
:1004D000FB013D912191321771F4332321F48827D8
:1004E0009927119702C01E921196FA01A193B08329
:1004F0009F918F910895222369F7EACFAF92BF921F
:10050000CF92DF92EF92FF920F931F93CF93DF93DF
:100510005C0180913802C82FD0E060E1C62E62E015
:10052000D62EF60120E030E006C080813596883571
:1005300031F02F5F3F4F2C173D07BCF309C1E0E1BD
:10054000F2E020E030E080813596883529F02F5F99
:100550003F4F2C173D07BCF32C173D0759F40F2EC6
:10056000F0E0EF2EF0E0FF2EF0E00F2FF0E01F2F75
:10057000F02D0DC0F901EE0FFF1FEE0FFF1FE20F70
:10058000F31FE05FFD4FE180F280038114818091D1
:100590004201882329F020E030E040E050E008C02C
:1005A000E0910A02F0910B02248135814681578146
:1005B000C801B7010E948814A62F692F2A2F372F50
:1005C000482F562FC901DA01F50180839183A28358
:1005D000B383E0E1F2E020E030E006C080813596B0
:1005E000893531F02F5F3F4F2C173D07BCF3B9C061
:1005F000E0E1F2E020E030E080813596893529F0B5
:100600002F5F3F4F2C173D07BCF32C173D0759F4C4
:100610000F2EF0E0EF2EF0E0FF2EF0E00F2FF0E0D5
:100620001F2FF02D0DC0F901EE0FFF1FEE0FFF1F62
:10063000E20FF31FE05FFD4FE180F2800381148140
:1006400080914201882329F020E030E040E050E032
:1006500008C0E0910C02F0910D02248135814681A1
:100660005781C801B7010E948814A62F692F2A2F2D
:10067000372F482F562FC901DA01F501848395835E
:10068000A683B783E0E1F2E020E030E006C080819D
:1006900035968A3531F02F5F3F4F2C173D07BCF35D
:1006A00069C020E030E0F601808145E050E0C40EF2
:1006B000D51E8A3529F02F5F3F4F2C173D079CF33D
:1006C0002C173D0759F40F2EF0E0EF2EF0E0FF2E2F
:1006D000F0E00F2FF0E01F2FF02D0DC0F901EE0F0D
:1006E000FF1FEE0FFF1FE20FF31FE05FFD4FE180E2
:1006F000F2800381148180914201882329F020E057
:1007000030E040E050E008C0E0910E02F0910F02AE
:100710002481358146815781C801B7010E94881420
:10072000A62F692F2A2F372F482F562FC901DA01FC
:10073000F50180879187A287B387DF91CF911F91C1
:100740000F91FF90EF90DF90CF90BF90AF90089502
:10075000E0910A02F0910B02A48175818681678184
:100760002DCFE0910C02F0910D02A481758186815C
:1007700067817DCFE0910E02F0910F02A481758117
:1007800086816781CFCFE0910A02F0910B028089C8
:100790009189A289B389E0910C02F0910D02009732
:1007A000A105B10569F480899189A289B38900976F
:1007B000A105B10521F1E0910E02F0910F0217C0E1
:1007C00080899189A289B389E0910E02F0910F028C
:1007D0000097A105B10559F480899189A289B3894F
:1007E0000097A105B10571F420E130E00DC08089CA
:1007F0009189A289B3890097A105B10519F02DE06F
:1008000030E002C02FE030E0C90108950F931F933C
:100810000E94C3038C016091440170914501809155
:1008200046019091470120E030E040E253E40E940D
:100830006115980140E050E0882359F4CA01B901DC
:100840000E94011623E333E34BEC51E40E94671747
:1008500004C0CA01B9010E9401160E94D515CB013E
:100860001F910F9108954F925F926F927F928F9296
:100870009F92AF92BF92CF92DF92EF92FF920F932F
:100880001F93CF93DF93EFEA4E2EE1E05E2E74E4E8
:10089000672E71E0772E88249924F201C081D181DE
:1008A000688579858A859B852C813D814E815F8114
:1008B0000E9487147B018C016C877D878E879F87C0
:1008C000F301A080B180C280D38020E030E040E01E
:1008D00050E00E945C17181624F017FB109517F9CA
:1008E0001095C601B501A80197010E9467177B0109
:1008F0008C016091430170E0882777FD8095982FE7
:100900000E9403169B01AC01C801B7010E94671742
:100910000E94D015688B798B8A8B9B8B6C857D852B
:100920008E859F8520E030E040E050E00E94611518
:1009300087FD02C081E001C08FEF8E8BF1E08F1642
:10094000910469F092E08916910479F08114910480
:1009500099F460E0813009F061E08CE00BC060E068
:10096000813009F061E088E005C060E0813009F481
:1009700061E08DE00E94EC100894811C911CE2E083
:10098000F0E04E0E5F1E84E090E0680E791E93E06A
:100990008916910409F081CFDF91CF911F910F91BA
:1009A000FF90EF90DF90CF90BF90AF909F908F908F
:1009B0007F906F905F904F900895CF93DF93FC01ED
:1009C00020910A0230910B0280819181A281B38132
:1009D000E9018C839D83AE83BF8320910C0230910B
:1009E0000D0284819581A681B781E9018C839D8365
:1009F000AE83BF8320910E0230910F0280859185D6
:100A0000A285B385F90184839583A683B7830E9469
:100A10003304DF91CF910895CF93DF93FC012091B0
:100A20000A0230910B0280819181A281B381E90198
:100A300088879987AA87BB8720910C0230910D0285
:100A400084819581A681B781E90188879987AA87E2
:100A5000BB8720910E0230910F0280859185A2857F
:100A6000B385F90180879187A287B3870E943304F9
:100A7000DF91CF91089587E061E00E94EC1089EB4F
:100A800091E090930B0280930A0244ED51E0509361
:100A90000D0240930C022FEE31E030930F022093B1
:100AA0000E029093B0018093AF015093B201409336
:100AB000B1013093B4012093B301FC01119281E0A4
:100AC000E43DF807D9F7E4EDF1E0119281E0EF3E63
:100AD000F807D9F7EFEEF1E0119282E0EA30F8077B
:100AE000D9F78BE08093B90189E08093D4018AE043
:100AF0008093EF011092BB011092D6011092F10188
:100B00001092BC011092D7011092F20188E08093FC
:100B1000BA0182E08093D50184E08093F0010E94C5
:100B20003304089583E060E00E94EC1083E060E00D
:100B30000E94EC10089584E060E00E94EC1008959B
:100B400084E061E00E94EC1008958430B1F08530BB
:100B500028F4813041F0823059F508C0883081F0A6
:100B6000803131F518C086E060E002C086E061E0C7
:100B70000E94EC1085E060E009C086E060E002C001
:100B800086E061E00E94EC1085E061E00E94EC10DC
:100B900082E060E00AC086E061E00E94EC1085E03F
:100BA00061E00E94EC1082E061E00E94EC10089588
:100BB0008EEC92E060E071E00E949D1308950F9327
:100BC0001F93382F492F20913802283039F48EECAA
:100BD00092E061E171E00E949D131DC0822F90E0C0
:100BE0002F5F209338028C01000F111F000F111F7F
:100BF000080F191F005F1D4FE32FF42F8191D801BB
:100C00008C93CF0160E070E00E94CF00F801618317
:100C10007283838394831F910F9108956DE171E036
:100C20000E944702009729F00E94DF0580E090E0D3
:100C3000F5CF089583E061E00E94EC1083E061E06D
:100C40000E94EC106AEF70E080E090E00E945A1081
:100C500008950E9492056AEF70E080E090E00E94A3
:100C60005A100E941A0608951F93CF93DF93EC0148
:100C70008A81182F1F7387FF1FC0812F0E9439118F
:100C8000892BD1F013C0812F0E943911892BB9F41F
:100C90000DC0812F0E943911892BB1F007C0812F1F
:100CA0000E94391120E0892B11F011C020E0822F21
:100CB000DF91CF911F9108958A8186FDE4CF8B81CA
:100CC000182F1F7387FDE5CF8B8186FDE8CF21E0CC
:100CD000EECF2F923F924F925F926F927F928F92C0
:100CE0009F92AF92BF92CF92DF92EF92FF920F93BB
:100CF0001F93DF93CF930F92CDB7DEB71B012C016B
:100D0000198220E030E040E050E00E946115882325
:100D100011F081E0898380900A0290900B02A090EC
:100D20000C02B0900D02C0900E02D0900F02A9816B
:100D3000AA2309F04BC06091430170E0882777FD3A
:100D40008095982F0E9403167B018C0120E030E0F3
:100D50004EE757E40E9467179B01AC0160EC71EE0F
:100D600084E69CE40E9468150E94D515F401758BF9
:100D7000648BC801B70120E030E24EE657E40E94E0
:100D800067179B01AC0160EC71EE84E69CE40E9465
:100D900068150E94D515D50155967C936E9354978E
:100DA000C801B70120E030E64EE457E40E9467171F
:100DB0009B01AC0160EC71EE84E69CE40E94681536
:100DC0000E94D515F601758B648B43C0D4011C9627
:100DD0002D913D914D915C911F97F501E484F5842F
:100DE00006851785D6011C966D907D908D909C9000
:100DF0001F97CA01B9010E9467175B016C01C80106
:100E0000B701A80197010E9467179B01AC01C601B9
:100E1000B5010E9488147B018C01C401B301A401B7
:100E200093010E9467179B01AC01C801B7010E94A2
:100E300088140E94D41720EC31EE44E65CE40E9452
:100E40006717A20191010E9468150E94D5154B01F8
:100E50005C010FEA11E0CC24CA94DC2C7601F80185
:100E600040805180D20150962D913D914D915C91E1
:100E700053972115310541055105C9F0B981BB23AF
:100E800039F0B401C5010E946B18F201358B248B37
:100E9000D20154968D919C91559796958795A0E097
:100EA000B0E0F201878B908FA18FB28F07C0D20183
:100EB0005796CD92DD92ED92FC925A970E5F1F4F9E
:100EC000B1E0053B1B0759F60E942F104B015C0156
:100ED000B3E0B694A79497948794BA95D1F7222457
:100EE0002A94322C21018BC0F301E788F08C018D0C
:100EF000128DE0910C02F0910D022789308D418D09
:100F0000528DC0900E02D0900F02E216F306040735
:100F1000150760F4F6018789908DA18DB28D8E152D
:100F20009F05A007B10780F436010EC03601D60137
:100F30005796ED90FD900D911C915A97E216F3068D
:100F40000407150708F03F010E942F10A3E09695B3
:100F5000879577956795AA95D1F7F3012789308D05
:100F6000418D528D280D391D4A1D5B1D6217730777
:100F70008407950748F3C3010E9434068823B9F01B
:100F800085B1D30111969C91892B85B90000000091
:100F90000000000000000000000000000000000051
:100FA00000000000000085B19095982395B9F301E9
:100FB00080899189A289B3890197A109B109808BA0
:100FC000918BA28BB38B0097A105B10589F0248981
:100FD000358940E050E08789908DA18DB28D820FD8
:100FE000931FA41FB51F878B908FA18FB28F07C04F
:100FF000D30157962D923D924D925C925A976090F4
:101000000A0270900B02F30180899189A289B38949
:101010000097A105B10509F067CF20910C0230912E
:101020000D02F90180899189A289B3890097A105F0
:10103000B10509F059CFE0910E02F0910F028089BD
:101040009189A289B3890097A105B10509F04CCF18
:10105000D30118964D915D916D917C911B971496DB
:101060004D935D936D937C931797D90118964D918D
:101070005D916D917C911B9714964D935D936D934B
:101080007C93179780859185A285B385848395830A
:10109000A683B7830E9433040F90CF91DF911F91F5
:1010A0000F91FF90EF90DF90CF90BF90AF909F9007
:1010B0008F907F906F905F904F903F902F9008950A
:1010C0002F923F924F925F926F927F928F929F9258
:1010D000AF92BF92CF92DF92EF92FF920F931F9346
:1010E000DF93CF93CDB7DEB7AB970FB6F894DEBFE3
:1010F0000FBECDBF8C01DC018C918F3209F440C64C
:1011000087E060E00E94EC1010923802C8010E9453
:101110000E0680913802482F50E0E0E1F2E0FB8FAC
:10112000EA8F20E030E006C080813596873431F0C8
:101130002F5F3F4F24173507BCF383C3E0E1F2E094
:1011400020E030E080813596873429F02F5F3F4FD3
:1011500024173507BCF32417350729F460E070E045
:1011600080E090E00DC0F901EE0FFF1FEE0FFF1FB2
:10117000E20FF31FE05FFD4F6181728183819481F3
:101180000E94D515698F6C3109F488C26D31B0F4B5
:10119000643048F4623008F088C0662339F1613069
:1011A00009F03EC331C0298D243109F42BC2253109
:1011B00009F449C2243009F033C343C3498D4B3588
:1011C00009F426C34C3550F4413509F48EC24A3532
:1011D00009F41AC34E3109F023C367C2598D5C3537
:1011E00009F419C35F3508F01BC32BC38E010F5FD1
:1011F0001F4FC8010E947E02C8010E940C0560E0DA
:1012000070E080E090E04EC08E010F5F1F4FC8017C
:101210000E947E02C8010E940C0580913802482F6E
:1012200050E0E0E1F2E020E030E006C08081359659
:10123000863431F02F5F3F4F24173507BCF32AC0A7
:10124000E0E1F2E020E030E080813596863429F05C
:101250002F5F3F4F24173507BCF32417350729F4B8
:1012600080E090E0A0E0B0E00DC0F901EE0FFF1FBC
:10127000EE0FFF1FE20FF31FE05FFD4F81819281B0
:10128000A381B4818093B5019093B601A093B70177
:10129000B093B8016091B5017091B6018091B7012A
:1012A0009091B8010E946906CCC2CE0101960E94BD
:1012B0007E02E0910A02F0910B0284809580A68064
:1012C000B78080913802082F10E0E0E1F2E020E0E2
:1012D00030E006C080813596893429F02F5F3F4F7A
:1012E00020173107BCF32017310729F420E030E044
:1012F00040E050E00DC0F901EE0FFF1FEE0FFF1FA1
:10130000E20FF31FE05FFD4F218132814381548161
:10131000C501B4010E94881468A779A78AA79BA772
:10132000E0910C02F0910D02C480D580E680F78038
:10133000E0E1F2E020E030E006C0808135968A34BA
:1013400029F02F5F3F4F20173107BCF320173107DB
:1013500029F420E030E040E050E00DC0F901EE0F4C
:10136000FF1FEE0FFF1FE20FF31FE05FFD4F218114
:10137000328143815481C701B6010E9488146CA355
:101380007DA38EA39FA3C501B40128A539A54AA5B5
:101390005BA50E9487141B012C01C701B6012CA17B
:1013A0003DA14EA15FA10E9487143B014C016981C0
:1013B0007A818B819C8128A539A54AA55BA50E94CD
:1013C00087145B016C016D817E818F8198852CA1D2
:1013D0003DA14EA15FA10E9487147B018C01898DE4
:1013E000823079F4B701C8019501A6010E94FB146F
:1013F00068A379A38AA39BA3C401B301A2019101AD
:101400000EC0C401B301A20191010E94FB1468A3A4
:1014100079A38AA39BA3B701C8019501A6010E94E5
:10142000FB147B018C0128A139A14AA15BA10E9478
:101430006115181654F0C801B7012BED3FE049ECD7
:1014400050E40E9488147B018C01C801B70128A1D7
:1014500039A14AA15BA10E9487146C8F7D8F8E8F6A
:101460009F8FC201B101A20191010E9467177B0108
:101470008C01C401B301A40193010E9467179B0171
:10148000AC01C801B7010E9488140E94D4175B0107
:101490006C012C8D3D8D4E8D5F8D0E9467172091C4
:1014A00050013091510140915201509153010E94DD
:1014B00068150E944E150E94D0153B0171E0872EE1
:1014C000912C1301442437FC4094542C96C0998DE0
:1014D000933011F4940103C0930128193909B9011B
:1014E000882777FD8095982F0E9403167B018C0139
:1014F000C201B1010E9403169B01AC01C801B701F2
:101500000E9468159B01AC016C8D7D8D8E8D9F8D29
:101510000E9467179B01AC0168A179A18AA19BA1D8
:101520000E9488147B018C01C8010E9465159B01F3
:10153000AC01C601B5010E9467179B01AC0168A50B
:1015400079A58AA59BA50E9488146D877E878F87C1
:10155000988BB701C8010E94CA179B01AC01C60154
:10156000B5010E9467179B01AC016CA17DA18EA102
:101570009FA10E948814698B7A8B8B8B9C8BE09146
:101580000E02F0910F0284819581A681B7818D8B27
:101590009E8BAF8BB88FCE010D960E940C05E0900C
:1015A0003902F0903A0200913B0210913C02C801CE
:1015B000B70120E030E040E050E00E945C171816D0
:1015C0001CF4C801B70108C00E940604A0E0B0E006
:1015D000BC01CD010E9401160E94D01560933D020E
:1015E00070933E0280933F02909340020E94031644
:1015F0000E9469060894811C911C681479040CF0FF
:1016000066CF1FC180E090E0AEE7B5E4809344016F
:1016100090934501A0934601B09347018093480100
:1016200090934901A0934A01B0934B0180934C01E0
:1016300090934D01A0934E01B0934F0180E792E447
:10164000A1EABCE320C080E090E0A0E2B3E4809394
:10165000440190934501A0934601B09347018093C4
:10166000480190934901A0934A01B0934B018093A4
:101670004C0190934D01A0934E01B0934F0180E037
:1016800090E0A0E0BFE38093500190935101A093BC
:101690005201B09353010E943304D3C080E691E01D
:1016A0000E940C050E94060419C08E010F5F1F4F97
:1016B000C8010E947E02C8010E940C050E94060417
:1016C000A0E0B0E0BC01CD010E9401160E946906B5
:1016D00080E691E00E940C050E940604A0E0B0E0C4
:1016E000BC01CD010E940116DDCDE0910E02F0910A
:1016F0000F02A480B580C680D7808E010F5F1F4F78
:10170000C8010E947E02C8010E940C05E0910E02F1
:10171000F0910F02A086B186C286D3860E94330460
:101720000E940604A0E0B0E0BC01CD010E940116B9
:101730000E94690680900E0290900F0280913802FC
:10174000482F50E0E0E1F2E020E030E006C0808188
:1017500035968A3529F02F5F3F4F24173507BCF3A4
:101760002417350759F40F2EF0E0EF2EF0E0FF2E8E
:10177000F0E00F2FF0E01F2FF02D0DC0F901EE0F5C
:10178000FF1FEE0FFF1FE20FF31FE05FFD4FE18031
:10179000F2800381148180914201882329F020E0A6
:1017A00030E040E050E007C0D40114962D913D9107
:1017B0004D915C911797C801B7010E948814F401FC
:1017C00060877187828793870E9433040E94060492
:1017D000A0E0B0E0BC01CD010E9401160E946906A4
:1017E000E0910E02F0910F02A086B186C286D386E8
:1017F0000E9433040E940604A0E0B0E0BC01CD01C9
:101800000E9401160E94690681E08093420119C07E
:101810001092420116C080E691E00E94DD0411C0E2
:101820008EEC92E063E271E00E947E13F98D4F2FFF
:1018300050E060E070E08EEC92E02AE030E00E9440
:101840007C1480913802E82EFF24E0E1F2E020E0F1
:1018500030E006C0808135968D3431F02F5F3F4FE8
:101860002E153F05BCF38CC2E0E1F2E020E030E051
:10187000808135968D3429F02F5F3F4F2E153F051F
:10188000BCF32E153F0529F460E070E080E090E0A5
:101890000DC0F901EE0FFF1FEE0FFF1FE20FF31F48
:1018A000E05FFD4F61817281838194810E94D51533
:1018B000162F613509F470C0623560F46530E9F0C7
:1018C000663020F4633008F44BC214C0603509F070
:1018D00047C274C06A3509F436C16B3520F46235ED
:1018E00009F03EC20DC0623609F4E2C1633609F068
:1018F00037C2F1C10E94A00543C20E949B0540C2AD
:10190000399A41983898409AEE24FF242D9A00E0A5
:1019100010E00CC02A9A81E090E00E9484102A987E
:1019200088EC90E00E9484100F5F1F4F3099F2CF37
:10193000A80160E070E08EEC92E02AE030E00E94C6
:101940007C142D981DC02A9A81E090E00E9484109A
:101950002A986091430170E0882777FD8095982F41
:101960000E94031620E030E048E451E40E9467172B
:101970000E94D515DC01CB010E948410015010405B
:101980000115110501F70894E11CF11C24E1E21690
:10199000F10409F0BBCFF4C1399A41983898409AC4
:1019A000309B05C08EEC92E06AE271E004C08EECE0
:1019B00092E06FE271E00E949D13F2CF399A419854
:1019C0003898409A80E090E0A0E0B0E089839A8364
:1019D000AB83BC838D839E83AF83B88789879A87C7
:1019E000AB87BC87CE0101960E940C05CE01019603
:1019F0000E94DD0460E070E080E090E00E946906F3
:101A0000EE24FF2487018DC0C201B1010E9403169C
:101A100069837A838B839C83AD82BE82CF82D88692
:101A200080E090E0A0E0B0E089879A87AB87BC8730
:101A3000CE0101960E940C0560E070E080E090E02D
:101A40000E9469062D98882499240DC02A9A81E065
:101A500090E00E9484102A9888EC90E00E94841004
:101A60000894811C911C3099F1CF8EEC92E0B80162
:101A7000A7012AE030E00E9467148EEC92E063E355
:101A800071E00E947E13C601B5010E94D015AB0122
:101A9000BC018EEC92E02AE030E00E9467148EECEC
:101AA00092E063E371E00E947E13A40160E070E0C5
:101AB0008EEC92E02AE030E00E947C142D9A0DC05A
:101AC0002A9A81E090E00E9484102A9888EC90E0A5
:101AD0000E9484100894810891088114910481F770
:101AE000C601B50120E030E040E050E40E948814D7
:101AF0005B016C010894611C711C96E2691671040B
:101B000009F082CF82E090E0A0E0B0E0E80EF91E9C
:101B10000A1F1B1F90EAE916F1040105110509F4DB
:101B20002FC10F2EF0E0AF2EF0E0BF2EF0E0CF2E51
:101B3000F0E0DF2EF02D662477241701442437FCD3
:101B40004094542C61CF399A41983898409A80E05B
:101B500090E0A0E0B0E089839A83AB83BC8320E06F
:101B600030E047E053E42D833E834F8358878987D5
:101B70009A87AB87BC878E010F5F1F4FC8010E94F9
:101B80000C05C8010E94DD0460E070E080E090E098
:101B90000E9469060F2EF0E0CF2EF0E0DF2EF7E076
:101BA000EF2EF3E4FF2EF02DAA24BB240F2EF0E03D
:101BB0006F2EF0E07F2EF0E08F2EF0E09F2EF02DC4
:101BC000280169827A828B829C82CD82DE82EF82BA
:101BD000F88669867A868B869C86C2010E940C05EF
:101BE00060E070E080E090E00E9469062D9A00E0DD
:101BF00010E00CC02A9A81E090E00E9484102A989C
:101C000088EC90E00E9484100F5F1F4F3099F2CF54
:101C10008EEC92E040E050E060E070E02AE030E0DE
:101C20000E9467148EEC92E063E371E00E947E13E1
:101C3000C701B6010E94D015AB01BC018EEC92E049
:101C40002AE030E00E9467148EEC92E063E371E0DA
:101C50000E947E13A80160E070E08EEC92E02AE022
:101C600030E00E947C142D980CC02A9A81E090E00C
:101C70000E9484102A9888EC90E00E948410015001
:101C800010400115110589F7C701B60120E030E0C9
:101C900040E85EE30E9487146B017C010894A11C5C
:101CA000B11CACE1AA16A2E0BA0609F08ACF68C05E
:101CB000399A41983898409A2D9A0AC02A9A81E018
:101CC00090E00E9484102A9888EC90E00E94841092
:101CD0003099F4CF55C0E0E1F2E020E030E08081BF
:101CE0003596833531F02F5F3F4F2E153F05BCF3FE
:101CF00037C020E030E0EA8DFB8D80813596FB8F88
:101D0000EA8F833529F02F5F3F4F2E153F059CF357
:101D10002E153F0529F460E070E080E090E00DC0F2
:101D2000F901EE0FFF1FEE0FFF1FE20FF31FE05F41
:101D3000FD4F61817281838194810E94D515162F98
:101D4000862F8150823030F0143021F0183011F09D
:101D5000103131F410934301812F0E94A50510C06A
:101D60008EEC92E065E371E00E947E13412F50E01B
:101D700060E070E08EEC92E02AE030E00E947C149B
:101D80008EEC92E060E271E00E949D13AB960FB67C
:101D9000F894DEBF0FBECDBFCF91DF911F910F91A1
:101DA000FF90EF90DF90CF90BF90AF909F908F907B
:101DB0007F906F905F904F903F902F9008950F937A
:101DC0001F93082F182F1F7321F0812F60E00E94AE
:101DD000CC1006FF03C0812F61E002C0812F60E0BC
:101DE0000E94EC101F910F91089586E061E00E941F
:101DF000CC1085E061E00E94CC1082E061E00E949E
:101E0000CC1083E061E00E94CC1083E061E00E948E
:101E1000CC1087E061E00E94CC108BE061E00E9472
:101E2000CC1089E061E00E94CC108AE061E00E9461
:101E3000CC108CE061E00E94CC1088E061E00E9450
:101E4000CC108DE061E00E94CC1080E00E94DF0E9B
:101E500080E00E94DF0E80E00E94DF0E80E00E94A2
:101E6000DF0E80E00E94DF0E80E00E94DF0E8BE03C
:101E700060E00E94EC1089E060E00E94EC108AE0D3
:101E800060E00E94EC108CE060E00E94EC1088E0C2
:101E900060E00E94EC108DE060E00E94EC1087E0B2
:101EA00061E00E94EC1080E10E94A5050E942906D5
:101EB000089584E061E00E94CC1008958EEC92E0D9
:101EC0000E94BE128823A1F08EEC92E00E94D212F2
:101ED000982F1092AE011092AD018091AC01E82FC5
:101EE000F0E0E459FE4F90838F5F8093AC010DC00A
:101EF0008091AD019091AE0101969093AE018093D7
:101F0000AD0184E690E00E948410E091AC01EE23E4
:101F1000D1F09A3039F08091AD019091AE018536C3
:101F2000910588F0F0E0E459FE4F10828CE691E0D4
:101F30000E946008ECE6F1E0119221E0EC3AF20731
:101F4000D9F71092AC018091AD019091AE01895EFC
:101F5000934020F087E061E00E94EC1008958EEC41
:101F600092E040E855E260E070E00E94C5110E94F6
:101F7000F50E0E94590F0E940604A0E0B0E0BC01DB
:101F8000CD010E9401166093B5017093B601809354
:101F9000B7019093B8010E943B05ECE6F1E0119285
:101FA00081E0EC3AF807D9F71092AC0185B58E7F45
:101FB00085BD8EEC92E06CE371E00E949D13089564
:101FC0000E9492100E94AF0F0E945E0FFDCF1F92E1
:101FD0000F920FB60F9211242F933F938F939F93DD
:101FE000AF93BF938091450290914602A091470222
:101FF000B0914802309149020196A11DB11D232FD5
:102000002D5F2D3720F02D570196A11DB11D209376
:1020100049028093450290934602A0934702B093F1
:1020200048028091410290914202A0914302B091F6
:1020300044020196A11DB11D80934102909342027A
:10204000A0934302B0934402BF91AF919F918F91AF
:102050003F912F910F900FBE0F901F9018956FB763
:10206000F89486B590E0A0E0B0E0A89B08C0009787
:10207000A105B10521F480E091E0A0E0B0E020915D
:1020800041023091420240914302509144026FBF9D
:10209000542F432F322F2227280F391F4A1F5B1F2F
:1020A00082E0220F331F441F551F8A95D1F7B901D3
:1020B000CA010895EF92FF920F931F937B018C0149
:1020C0008FB7F894409145025091460260914702C3
:1020D000709148028FBF2FB7F8948091450290917C
:1020E0004602A0914702B09148022FBF841B950B76
:1020F000A60BB70BE816F9060A071B0760F71F9136
:102100000F91FF90EF900895019759F0FC01EE0FA9
:10211000FF1FEE0FFF1F32978FB7F8943197F1F73B
:102120008FBF0895789484B5826084BD84B5816042
:1021300084BD85B5826085BD85B5816085BDEEE6CF
:10214000F0E0808181608083E1E8F0E0808182605E
:102150008083808181608083E0E8F0E0808181601D
:102160008083E1EBF0E0808184608083E0EBF0E04D
:10217000808181608083EAE7F0E0808184608083F1
:10218000808182608083808181608083808180689B
:1021900080831092C1000895282F30E0C9018B512F
:1021A0009F4FFC0194912F523F4FF9018491882356
:1021B00091F0E82FF0E0EE0FFF1FED54FF4FA591D7
:1021C000B491662329F48C91909589238C9308957A
:1021D0008C91892B8C930895482F50E0CA01875029
:1021E0009F4FFC012491CA018B519F4FFC01949198
:1021F0004F525F4FFA0134913323D1F1222331F151
:10220000233021F4809180008F7705C0243031F491
:10221000809180008F7D8093800018C0213019F458
:1022200084B58F7704C0223021F484B58F7D84BDBE
:102230000DC0263021F48091B0008F7705C0273083
:1022400029F48091B0008F7D8093B000E32FF0E0FF
:10225000EE0FFF1FE354FF4FA591B491662329F4BD
:102260008C91909589238C9308958C91892B8C93D4
:102270000895682F70E0CB0187509F4FFC01249197
:10228000CB018B519F4FFC0144916F527F4FFB015B
:102290009491992319F420E030E038C0222331F1E1
:1022A000233021F4809180008F7705C0243031F4F1
:1022B000809180008F7D8093800018C0213019F4B8
:1022C00084B58F7704C0223021F484B58F7D84BD1E
:1022D0000DC0263021F48091B0008F7705C02730E3
:1022E00029F48091B0008F7D8093B000892F90E019
:1022F000880F991F89539F4FFC01A591B4918C9130
:1023000020E030E0842311F021E030E0C90108959D
:102310001F920F920FB60F9211242F933F934F935A
:102320005F936F937F938F939F93AF93BF93EF933D
:10233000FF934091C600E091CA02F091CB02CF0119
:10234000019660E870E00E9458189C018091CC02D0
:102350009091CD022817390739F0E65BFD4F408395
:102360003093CB022093CA02FF91EF91BF91AF91BE
:102370009F918F917F916F915F914F913F912F919D
:102380000F900FBE0F901F9018955F926F927F92E3
:102390008F929F92AF92BF92CF92DF92EF92FF9275
:1023A0000F931F93CF93DF93EC013A014B0141341C
:1023B00082E458078FE0680780E078070CF07FC060
:1023C00060E874E88EE190E0A40193010E948D180A
:1023D0002150304040405040CA01B90122E030E075
:1023E00040E050E00E948D1859016A01A601950154
:1023F000209530954095509594E0220F331F441F4F
:10240000551F9A95D1F760E074E284EF90E00E9446
:102410008D18CA01B9012FEF30E040E050E00E9472
:102420003918A40193010E948D18C90181509F4F52
:10243000181619061CF4522E5A9403C055245394AE
:10244000521A60E079E08DE390E0A40193010E94CC
:102450008D182150304040405040CA01B90122E05F
:1024600030E040E050E00E948D1820953095409576
:10247000509583E0220F331F441F551F8A95D1F7D3
:1024800060E074E284EF90E00E948D18CA01B90107
:102490002FEF30E040E050E00E943918A401930192
:1024A0000E948D18C90181509F4F181619061CF4FF
:1024B000822F815002C081E0821B851500F5E885DE
:1024C000F98581E090E00A8802C0880F991F0A947C
:1024D000E2F7808360E079E08DE390E0A40193016E
:1024E0000E948D182150304040405040CA01B9012F
:1024F00022E030E040E050E00E948D1804C0E88502
:10250000F98510829501EC81FD813083EE81FF8198
:102510002083EA85FB85208141E050E0CA010E84DA
:1025200002C0880F991F0A94E2F7282B2083EA85BE
:10253000FB852081CA010F8402C0880F991F0A946D
:10254000E2F7282B2083EA85FB858081088802C07A
:10255000440F551F0A94E2F7842B8083DF91CF91BB
:102560001F910F91FF90EF90DF90CF90BF90AF90B1
:102570009F908F907F906F905F900895DC011296EE
:10258000ED91FC911397E058FF4F81919191805804
:102590009F4F20813181821B930B60E870E00E9485
:1025A00058180895CF93DF93DC011296ED91FC91BA
:1025B0001397EF01CE57DF4F48815981E058FF4F05
:1025C00080819181E058F0408417950719F42FEF2E
:1025D0003FEF0CC0E40FF51F2081CA01019660E8AF
:1025E00070E00E9458189983888330E0C901DF9118
:1025F000CF910895FC01A085B18521898C9190E04F
:10260000022E02C0959587950A94E2F780FFF6CFD7
:102610000484F585E02D6083089588E591E090932A
:10262000CF028093CE028AE492E09093D10280930D
:10263000D00285EC90E09093D3028093D20284EC98
:1026400090E09093D5028093D40280EC90E0909338
:10265000D7028093D60281EC90E09093D9028093C8
:10266000D80286EC90E09093DB028093DA0284E05B
:102670008093DC0283E08093DD0287E08093DE02BA
:1026800085E08093DF0281E08093E00208950F935C
:102690001F93CF93DF938C01EB0109C02196D801E2
:1026A000ED91FC910190F081E02DC80109956881C0
:1026B0006623A1F7DF91CF911F910F910895EF92BB
:1026C000FF920F931F93CF93DF938C017B01EA015D
:1026D0000CC0D7016D917D01D801ED91FC91019065
:1026E000F081E02DC80109952197209791F7DF919E
:1026F000CF911F910F91FF90EF900895DC01ED9124
:10270000FC910280F381E02D099508950F931F93AA
:102710008C01DC01ED91FC910190F081E02D6DE0E8
:102720000995D801ED91FC910190F081E02DC8014F
:102730006AE009951F910F9108950F931F938C01E3
:102740000E947E13C8010E9486131F910F91089565
:102750002F923F924F925F926F927F928F929F92B1
:10276000AF92BF92CF92DF92EF92FF920F931F939F
:10277000DF93CF93CDB7DEB7A0970FB6F894DEBF47
:102780000FBECDBF1C016A017B01411551056105DA
:10279000710549F4DC01ED91FC910190F081E02D8F
:1027A00060E3099554C0882499245401422E55248D
:1027B0006624772401E010E00C0F1D1F080D191D81
:1027C000C701B601A30192010E946B18F801608352
:1027D0000894811C911CA11CB11CC701B601A30166
:1027E00092010E946B18C901DA016C017D01C114CC
:1027F000D104E104F104F1F681E0E82EF12CEC0EB5
:10280000FD1EE80CF91C3E010894611C711CD501E9
:10281000C4010197A109B1096C01C818D90814C0F5
:10282000F601EE0DFF1D60816A3010F4605D01C09D
:10283000695CD101ED91FC910190F081E02DC10125
:1028400009950894E108F1086E147F0449F7A096F1
:102850000FB6F894DEBF0FBECDBFCF91DF911F91B1
:102860000F91FF90EF90DF90CF90BF90AF909F902F
:102870008F907F906F905F904F903F902F90089532
:10288000EF92FF920F931F93CF93DF93EC017A01A6
:102890008B0177FF0FC0E881F9810190F081E02D75
:1028A0006DE2099510950095F094E094E11CF11CFF
:1028B000011D111DCE01B801A7012AE00E94A81335
:1028C000DF91CF911F910F91FF90EF900895DC0160
:1028D0002115310541F4ED91FC910190F081E02D3D
:1028E000642F099508952A30310519F40E94401487
:1028F00008950E94A81308950F931F938C010E94BE
:102900006714C8010E9486131F910F9108955058B3
:10291000BB27AA270ED06EC22ED230F033D220F0C1
:1029200031F49F3F11F41EF4FEC10EF4E095E7FB75
:10293000C9C1E92F81D280F3BA17620773078407F0
:10294000950718F071F49EF5B0C20EF4E0950B2EC9
:10295000BA2FA02D0B01B90190010C01CA01A001F1
:102960001124FF27591B99F0593F50F4503E68F14C
:102970001A16F040A22F232F342F4427585FF3CF8D
:10298000469537952795A795F0405395C9F77EF45E
:102990001F16BA0B620B730B840BBAF09150A1F0A7
:1029A000FF0FBB1F661F771F881FC2F70EC0BA0F2D
:1029B000621F731F841F48F4879577956795B795B5
:1029C000F7959E3F08F0B3CF9395880F08F09927AD
:1029D000EE0F979587950895CED158F080E891E055
:1029E00009F49EEFCFD128F040E851E059F45EEFB2
:1029F00009C099C15AC2E92FE0781ED268F3092EA6
:102A0000052AC1F3261737074807590738F00E2E55
:102A100007F8E02569F0E025E0640AC0EF6307F8F5
:102A2000009407FADB01B9019D01DC01CA01AD0187
:102A3000EF935DD0DFD10AD05F91552331F02BEDBC
:102A40003FE049E450FD49EC63CF0895DF93DD2773
:102A5000B92FBF7740E85FE31616170648075B07F4
:102A600010F4D92F2DD29F938F937F936F93E6D23B
:102A7000E8E6F0E05BD1BED12F913F914F915F919D
:102A800032D2DD2349F09058A2EA2AED3FE049EC2A
:102A90005FE3D0785D274DDFDF91ACC1EFD180F0EF
:102AA0009F3740F491110EF401C260E070E080E8BD
:102AB0009FE3089526F01B16611D711D811D08C13D
:102AC00022C1DCD008F481E0089564D1E395A3C16C
:102AD0000CD090C157D140F04ED130F021F45F3F7F
:102AE00019F0F0C05111E2C11EC1A6D198F399238B
:102AF000C9F35523B1F3951B550BBB27AA276217C2
:102B00007307840738F09F5F5F4F220F331F441F06
:102B1000AA1FA9F333D00E2E3AF0E0E830D091503E
:102B20005040E695001CCAF729D0FE2F27D0660F2B
:102B3000771F881FBB1F261737074807AB07B0E86A
:102B400009F0BB0B802DBF01FF2793585F4F2AF080
:102B50009E3F510568F0B6C0A9C15F3FECF3983EB7
:102B6000DCF3869577956795B795F7959F5FC9F7DD
:102B7000880F911D9695879597F90895E1E0660F66
:102B8000771F881FBB1F621773078407BA0720F0DF
:102B9000621B730B840BBA0BEE1F88F7E095089548
:102BA00004D06894B11182C108954ED188F09F5726
:102BB00090F0B92F9927B751A0F0D1F0660F771F89
:102BC000881F991F1AF0BA95C9F712C0B13081F069
:102BD0006CD1B1E0089569C1672F782F8827B85F5D
:102BE00039F0B93FCCF3869577956795B395D9F7CA
:102BF0003EF490958095709561957F4F8F4F9F4FD4
:102C00000895E89409C097FB3EF4909580957095DF
:102C100061957F4F8F4F9F4F9923A9F0F92F96E928
:102C2000BB279395F695879577956795B795F1119D
:102C3000F8CFFAF4BB0F11F460FF1BC06F5F7F4F3A
:102C40008F4F9F4F16C0882311F096E911C077234C
:102C500021F09EE8872F762F05C0662371F096E855
:102C6000862F70E060E02AF09A95660F771F881F24
:102C7000DAF7880F9695879597F90895990F0008C8
:102C8000550FAA0BE0E8FEEF16161706E807F9073E
:102C9000C0F012161306E407F50798F0621B730BD9
:102CA000840B950B39F40A2661F0232B242B252B5A
:102CB00021F408950A2609F4A140A6958FEF811DFD
:102CC000811D089597F99F6780E870E060E008959E
:102CD000882371F4772321F09850872B762F07C033
:102CE000662311F499270DC09051862B70E060E0A7
:102CF0002AF09A95660F771F881FDAF7880F969546
:102D0000879597F908959F3F49F0915028F486954B
:102D100077956795B7959F5F80389F4F880F9695F9
:102D2000879597F908959FEF80EC0895DF93CF93EF
:102D30001F930F93FF92EF92DF927B018C016894B7
:102D400005C0DA2EEF01CFD0FE01E894A5912591C0
:102D5000359145915591AEF3EF01EBDDFE01970101
:102D6000A801DA9479F7DF90EF90FF900F911F910F
:102D7000CF91DF91089500240A94161617061806BD
:102D80000906089500240A9412161306140605066F
:102D90000895C9CF59D0E8F3E894EFEFBB273FE09F
:102DA00048EC5FE76B3D73078407950708F1FF2741
:102DB0009F57B25A6A4D7F40894CF04032F4BE555D
:102DC0006542704F8643FF4F0894EE1F915030F0DC
:102DD000BB0F661F771F881FFF1FEBCF9EE788235F
:102DE00032F0BB0F661F771F881F9A95C1F7939526
:102DF000E09589CF092E0394000C11F4882352F03A
:102E0000BB0F40F4BF2B11F460FF04C06F5F7F4F16
:102E10008F4F9F4F0895EF93E0FF06C0A2EA2AED7F
:102E20003FE049EC5FEB85DDE5DF0F90039401FCAB
:102E30009058E5E9F0E00CC157FD9058440F551F3C
:102E400059F05F3F71F04795880F97FB991F61F02C
:102E50009F3F79F087950895121613061406551FA3
:102E6000F2CF4695F1DF08C0161617061806991F0F
:102E7000F1CF86957105610508940895E5DFA0F00E
:102E8000BEE7B91788F4BB279F3860F41616B11D4A
:102E9000672F782F8827985FF7CF86957795679566
:102EA000B11D93959639C8F30895E894BB2766271A
:102EB0007727CB0197F90895E1DE08F48FEF0895A5
:102EC0009B01AC0160E070E080E89FE301CE0BD095
:102ED00091CF51DF28F056DF18F0952309F0F2CE9C
:102EE00022CF1124E3CFA8DFA0F3959FD1F3950F54
:102EF00050E0551F629FF001729FBB27F00DB11D7E
:102F0000639FAA27F00DB11DAA1F649F6627B00D0D
:102F1000A11D661F829F2227B00DA11D621F739FF6
:102F2000B00DA11D621F839FA00D611D221F749F04
:102F30003327A00D611D231F849F600D211D822F4B
:102F4000762F6A2F11249F5750408AF0E1F0882392
:102F50004AF0EE0FFF1FBB1F661F771F881F91509F
:102F60005040A9F79E3F510570F0ACCE9FCF5F3F18
:102F7000ECF3983EDCF3869577956795B795F795D2
:102F8000E7959F5FC1F7FE2B880F911D969587955A
:102F900097F908959F93FEDE0F9007FCEE5F3BCFFD
:102FA00011F40EF4C0CEAFCE4FDFD0F39923D9F396
:102FB000CEF39F57550B87FF44D056959795B0E0B9
:102FC00020F4660F771F881FBB1F1F930F930024E9
:102FD0009001A0018001F001A0E80E0F1F1F0A1E42
:102FE000511D601B710B8009B50B48F4600F711FF8
:102FF000801DB51F0E1B1F0B0A0A510907C02E0F9B
:103000003F1F4A1F0E0F1F1F0A1E511D660F771FFD
:10301000881FBB1FA695F795E795F8F606171707C3
:1030200008065B07211D311D411D0F911F91B9013C
:10303000842F9158880F9695879508959B01AC0130
:1030400046CF91505040660F771F881FD2F70895E2
:103050009F938F937F936F93FF93EF939B01AC01AB
:1030600036DFEF91FF9162DE2F913F914F915F919B
:103070002ECF629FD001739FF001829FE00DF11D62
:10308000649FE00DF11D929FF00D839FF00D749FE2
:10309000F00D659FF00D9927729FB00DE11DF91F8E
:1030A000639FB00DE11DF91FBD01CF0111240895EB
:1030B00097FB092E07260AD077FD04D049D006D009
:1030C00000201AF4709561957F4F0895F6F790955A
:1030D00081959F4F0895A1E21A2EAA1BBB1BFD01EB
:1030E0000DC0AA1FBB1FEE1FFF1FA217B307E407E7
:1030F000F50720F0A21BB30BE40BF50B661F771F3F
:10310000881F991F1A9469F760957095809590951E
:103110009B01AC01BD01CF01089597FB092E052647
:103120000ED057FD04D0D7DF0AD0001C38F45095DC
:103130004095309521953F4F4F4F5F4F0895F6F7DB
:1031400090958095709561957F4F8F4F9F4F089513
:10315000AA1BBB1B51E107C0AA1FBB1FA617B707BD
:1031600010F0A61BB70B881F991F5A95A9F78095D9
:103170009095BC01CD010895EE0FFF1F0590F491CD
:10318000E02D0994911106C0803219F089508550C4
:10319000D0F708959927882708952F923F924F924C
:1031A0005F926F927F928F929F92AF92BF92CF92D7
:1031B000DF92EF92FF920F931F93CF93DF93CDB7E0
:1031C000DEB7CA1BDB0B0FB6F894DEBF0FBECDBF58
:1031D00009942A88398848885F846E847D848C8429
:1031E0009B84AA84B984C884DF80EE80FD800C8132
:1031F0001B81AA81B981CE0FD11D0FB6F894DEBF15
:0C3200000FBECDBFED010895F894FFCF84
:10320C00496E61766C69642073746570547970656D
:10321C00006164644F626A2046554C4C00200900E2
:10322C006F6B006875683F20470068696768006CC1
:10323C006F77002C006875683F204D0073746172C5
:10324C0074000110000020430000204300002043C4
:0E325C000000003F00000000FA1247135F134D
:00000001FF
